:4000000000080020110000003D0B00003D0B000008B501F075FF00F099FDC04610B50F4C12232360182001F0E7FE802292000C4B1A600C4B0C4A1A60FE2109020B4A116047
:400040000B4A1A6004220B4B1A603D320A4B1A60013A0A4B1A600023236010BD30001040040301400000014041FF00800003014040FF0080280003400C0101400801014031
:4000800008B572B6EE221202134B1A600E22134B1A600132124B1A602732124B1A60EC23114A13603021114A1160114A1360E93B104A1360D82109010F4A11600F4A1360CB
:4000C00001220F4B1A6004320E4B1A60FFF7A6FF00F0A0FD08BDC04600030240000004401800044008010440000204400802044018020440000304400803044018030440F4
:40010000000404401804044010B5064C2378002B07D1054B002B02D0044800E000BF0123237010BD38010020000000005023000008B5084B002B03D00748084900E000BF8D
:4001400007480368002B00D108BD064B002BFBD09847F9E700000000502300003C010020880000200000000008B500F085F900F02DF9012001F052FD08BDC04608B562B644
:4001800000F064FB00F028F800F044F900F060FA01F034FD0D4801F0E1FE00F059FD00F09BFF0B480A2100F06FF90A48012100F06BF900F059FF002805D100F071FD00F020
:4001C00033F900F089FF00F02FF9F2E76901000095080000F9010000002305E0054AD218002111700133DBB2052BF7D90022014B1A7270475401002070B5584B1B7A012B16
:4002000012D0002B04D0022B32D0032B53D0A3E0524B9B7A002B00D19EE0504B00229A72012119725A7297E04C4B5B7A012B0FD0002B02D0022B15D08EE0012001F09CFE55
:40024000464C201C052100F0C9F80123637283E0424800F0CDF8002800D17DE002223F4B5A7279E03D4B02221A7200225A7273E03A4B5B7A012B0FD0002B02D0022B14D029
:400280006AE0002001F078FE344C201C052100F0A5F8012363725FE0304800F0A9F800285AD002222D4B5A7256E02C4B03221A7200225A7250E0294B5B7A012B40D0002BD7
:4002C00002D0022B45D047E00122244B5A7243E0224B9B191D7B00242DE0EB0703D5012001F056FE02E0002001F052FE002302E0C0460133DBB2632BFAD9012001F03CFE6C
:40030000002302E0C0460133DBB2632BFAD96D08002302E0C0460133DBB2632BFAD9002001F02AFE002302E0C0460133DBB2632BFAD90134E4B2072CCFD90136F6B200E023
:400340000026064B5B7BB342C2D80222034B5A7202E00022014B1A7270BDC0465401002010B5164B1B7A002B25D1144B5A221A730331C9B25973002305E0C45C0F4AD218B5
:4003800094730133DBB20C1CCA1E9342F5DB0022002306E00949C918097B8A18D2B20133DBB2611E8B42F5DB044B59180A7301229A72012000E0002010BDC0465401002006
:4003C000014B18887047C0466C010020024A1388013313807047C0466C01002038B5041C0D1CFFF7EDFF6080A5800023237038BD10B5041C0378002B09D1FFF7E1FF6388E1
:40040000C01A80B2A388834201D201232370207810BDC04608B503480021A82201F08FFF08BDC0467001002010B5124BA2229A5AA4215B5A9A421CD0A4230E49CA52002483
:4004400012E00C4AA223D15AE300D218D388CB1A9BB292889A4205D8064BE2009818C180D35898470134E4B2A023024AD35CA342E7D810BD700100200249A2228B5A0133B6
:400480008B5270477001002010B5002810D0002910D0A023094AD35C122B0DD8141CDA001051A21891800133A022A354012004E0002002E0002000E0002010BD7001002032
:4004C00008B50348002303700121FFF749FF08BD1003002008B50348012303700121FFF73FFF08BD1003002008B50348022303700121FFF735FF08BD1003002008B503482D
:40050000032303700121FFF72BFF08BD1003002008B50348042303700121FFF721FF08BD1003002008B50348052303700121FFF717FF08BD1003002008B5034806230370A9
:400540000121FFF70DFF08BD1003002008B50348072303700121FFF703FF08BD1003002008B50348082303700121FFF7F9FE08BD1003002008B50348092303700121FFF73C
:40058000EFFE08BD1003002008B503480A2303700121FFF7E5FE08BD1003002008B503480B2303700121FFF7DBFE08BD1003002008B503480C2303700121FFF7D1FE08BDD3
:4005C0001003002008B503480D2303700121FFF7C7FE08BD1003002008B503480E2303700121FFF7BDFE08BD1003002008B503480F2303700121FFF7B3FE08BD1003002063
:4006000008B50348102303700121FFF7A9FE08BD1003002008B50348112303700121FFF79FFE08BD1003002008B50348122303700121FFF795FE08BD1003002008B503489E
:40064000132303700121FFF78BFE08BD1003002008B500200021314A00F0BCF9012000212F4A00F0B7F9022000212E4A00F0B2F9032000212C4A00F0ADF9042000212B4A5F
:4006800000F0A8F905200021294A00F0A3F906200021284A00F09EF907200021264A00F099F908200021254A00F094F909200021234A00F08FF90A200021224A00F08AF95C
:4006C0000B200021204A00F085F9022001211F4A00F080F9082001211D4A00F07BF9092001211C4A00F076F9082002211A4A00F071F909200221194A00F06CF90220082143
:40070000174A00F079F903200921164A00F074F909200021144A00F06FF908BDC1040000D5040000E9040000FD0400001105000025050000390500004D0500006105000065
:4007400075050000890500009D050000B1050000C5050000D9050000ED0500000106000015060000290600003D06000008B50B280AD8032908D84300181840188000034B74
:40078000C358002B00D0984708BDC0461802002070B588422AD00D1C814200D9051CEDB20E1C814200D2061CF6B2002419E063001B199B000E49CB18596900290FD0630092
:4007C0001B199B000A48C3181B7CAB4207D163001A1992008218537CB34200D188470134E4B23423024AD35C9C42E0D370BDC0469802002070B5002200240EE0104B1B5D34
:40080000013B012B07D80132D2B2012A00D1261C022A00D1251C0134E4B20B2CEED9022A0CD1301C291CFFF7B3FF054B03229A555A55E400034B1C19034B638070BDC04655
:400840001C030020280300201027000038B50E480021602201F073FD002311E099000B4A8858094AD900541860608D5C04202843885400226280064A0021D1540133DBB287
:400880000B2BEBD938BDC046280300208C0000201C030020F8B500258FE02C1C494EEF00F3195B6898470123184003405B00BA5D02218A431343BB55DB07DB0FDBB2984296
:4008C0006DD1404BDA19538801339BB25380012B71D93D4A525D012A15D0002A04D0022A2FD0032A46D066E0EB00364A9B5C9A07D20F5B07DB0F9A425DD10122324B5A5516
:40090000FFF778FF57E0EA002E49525C9107C90F5207D20F914207D000222B4B5A55281C0021FFF723FF46E096225200934242D92B3AFF3A244B5A55281C0121FFF716FF9F
:4009400039E0EA001F49525C9107C90F5207D20F914207D000221C4B5A55281C0221FFF705FF28E0FA229200934224D90322164B5A5520E0EA001349525C9107C90F5207F7
:40098000D20F914202D000210F4A51550F4A934211D9E4000B4B1C190D4B63800BE00949E8000B1800225A80435C9A07D20F0124A343134343540135EDB20B2D00D86CE73A
:4009C000F8BDC046280300201C03002050C30000983A00000B2809D8032909D84300181840188000034BC250012002E0002000E00020704718020020F0B53423124CE35C54
:400A0000022B1BD888421BD0002A1BD00C1C814200D9041CE4B20D1C814200D2051C0A4E5900C818800030180474457442610021017601333422B354012004E0002002E016
:400A4000002000E00020F0BD9802002008B50B2000F03AFA002801D0012000E0002008BD08B50A2000F030FA002801D0012000E0002008BD08B5092000F026FA002801D035
:400A8000012000E0002008BD08B5082000F01CFA002801D0012000E0002008BD08B5072000F012FA002801D0012000E0002008BD08B5062000F008FA002801D0012000E0F8
:400AC000002008BD08B5052000F0FEF9002801D0012000E0002008BD08B5042000F0F4F9002801D0012000E0002008BD08B5032000F0EAF9002801D0012000E0002008BD3A
:400B000008B5022000F0E0F9002801D0012000E0002008BD08B5012000F0D6F9002801D0012000E0002008BD08B5002000F0CCF9002801D0012000E0002008BD08B501F093
:400B4000C9FB03680C2B00D1FEE7FEE770B50F4E0F4D13E029686B68AC68002202E001C901C30432A242FAD1E868002202E0002102C304328242FAD11035013E002EE9D149
:400B800001F0AEFBFFF7FAFAFEE7C04601000000D426000008B500230AE0032B03D89A000949505800E009489900094A885001331F2BF2D9FFF764FA0022064B1A60802243
:400BC0009205054B1A6008BD000000003D0B0000000000208000002008ED00E00B4B1B68002803D080221206134301E05B005B08064A1360064B1B68002802D02022134346
:400C000001E020229343024A13607047002002402800034008B51022024B1A600120FFF7DDFF08BDC0020B4008B5084B1B78002B06D100F00DF900F059F90122034B1A7025
:400C400000F052F800F08CFB08BDC046D002002038B5FFF7E9FF051E02D100F0BBFA051C002D02D100F038FA051C002D12D101F0A4F9041C07E001F02BF9201C01F0A1F9BB
:400C800001F09BF9041C00F0EFF90028F3D1201C01F097F900F034F900F086F9281C38BD70B50F4E0024002515E06B0902339B000C4AD3185A681F232B40DA40131CDB076A
:400CC00007D5301C00F048F8041C281C311C00F093F81C3601350B2DE7D9201C70BDC046602300008803002070B500230BE01348191D890000220A509A1C92008218012186
:400D0000494251600133002BF1D00D4C0C2310E06668227E094B5B1900211975012A06D12069002803D0F179E28A01F008FB1C342B1C5D1E002BEBD170BDC04688030020D3
:400D4000602300000B884A889B1A0022CA8002799A4200DACB807047F0B583B0071C84684568037E01930026002300930BE0281C211C019A00F02EF90090281C211CFFF78D
:400D8000E1FF0A340136FB8AB342F0D8009803B0F0BDC046F0B5CA8A8D684F680B69012125E00C1C044003D17E88BA79B21802E07A88BE79921BEE88B24201D3002200E013
:400DC0000A1CA24202D01E78013E1E70A24202D01C78002C07D188431043002A01D1FA7900E001221A7049000A3501336246541EA446002AD5D1F0BD38B5041C0A7E134B1C
:400E00001B181D7D012A04D1281CFFF7C3FF051C02E0002000F070FF0C4B1B191D7563091F2214401E3AA240141C002D06D1074904339B005A58A2435A5005E0034A04330F
:400E40009B0099580C439C5038BDC0468803002038B5194C201C00219A22520001F06FFA164B238098235B006380293BFF3B238401221A33E25403320133E254201C2430D7
:400E80000F495C318C3201F051FA0E490C1C0C340C230CE0A268E38A04E00B78537201310A32031C581E002BF7D11C342B1C5D1E002BEFD138BDC0468803002058F5FFFFF2
:400EC00054240000542300000B280BD81F220240012393401A1C430904339B0002495858104000E000207047880300200023024A9380024A136070478803002004030020A8
:400F00000C230BE0CB005B1A9B00064AD318DB8A00E0131C5A1E002BFBD10B1C591E002BF0D1704760230000C9B2062902D08318002119715300195AC318598082180023E1
:400F40001372704770B50D4DC3001A1A9200AA1894688A00511849006418181A80002818067E012305E0201C311C2A1CFFF7DCFF2B1C5D1E002BF6D170BDC046602300002E
:400F800038B5051CC3001B1A9B00064AD318DB8A04E0281C211CFFF7D5FF231C5C1E002BF7D138BD6023000010B50C2303E0201CFFF7E6FF231C5C1E002BF8D110BDC0462F
:400FC0009840031C534380204000801A41435818000A7047F0B583B0071C0E1C019201233BE06300985BF3185988884205D3431A321900251572012201E00B1A0022002A91
:4010000011D17D799D420ED233191B7A3A7A934205D3301C0199221CFFF786FF1CE032190133137218E03D799D4204D27D799D4212D9002A10D16B461B79062B0CD00902AD
:4010400035192B79194301220823FFF7B9FF020A6300F3185A802871231C5C1E002BC0D1002003B0F0BDC046024B9B68802018407047C0468803002010B50F4B9B68DB038E
:401080000FD40B280FD8430902339B000A4AD3185A681F230340DA40131CDB0705D4012404E0112402E0012400E00024002C01D100F0E6FB201C10BD8803002008B5054BB4
:4010C0009B68DB0303D400F059FB002000E0112008BDC0468803002010B50F4B9B681B0618D400240120404211E0201CFFF7C4FF00280BD10A2C03D80122084B1A7002E07A
:401100000022064B1A70FFF7D9FF04E001340B2CEBD900E0112010BD880300200803002010B5174A53780133DBB253705078C0B2FFF7A2FF041E09D1114B5B780B2B02D1A2
:4011400000220F4B1A70FFF7B9FF15E00C4B5B780B2B0AD10B4A7533916899430B021B0A040623439360002406E006498B681B021B0A020613438B60002CD2D110BDC046AB
:401180000803002088030020074A084B1A6001380002074B1860054B1B68002BFBDB054A024B1A607047C04640000040000001400003014040FF008008B5031E0B2B01D8DE
:4011C000002000E00120002803D1181C3C2100F043FC08BD38B50024002504E0201CFFF7EBFF054301340B2CF8D9281C38BDC04670B5002516E0EB005B1B9B000B4A9E58CC
:40120000002406E0E000001B8000301800F006FB0134EB005B1B9B00044AD3189B7DA342F0D801350B2DE6D970BDC046602300002323014AD05C7047880300200203121A8E
:4012400001238B40191C01398A4205D30302181A814203D9052002E0062000E00020C0B27047C04670B50E1CFFF7E2FF051C3188002200F089F9041C9F2D08D9FF235B005C
:40128000984204D92C4901F019F800291FD09F2D07D9FE2C05D9201CFF2101F00FF8002917D09F2D07D97E2C05D9201C7F2101F005F800290FD09F2D0FD93E2C0FD9201C88
:4012C0003F2100F0FBFF00290BD000240AE0042408E0032406E0022404E0002402E0002400E00124002C04D13188281CFFF7A6FF041C631EDBB2032B01D8102000E000203E
:40130000002C10D0002810D064235843291C00F04FFF002301E0013340000928FBD90A2804D9013B02E0002300E00023DBB21B012343F37270BDC046FF01000010B5002494
:4013400009E0E3001B1B9B00044AD3185968201CFFF788FF01340B2CF3D910BD6023000008B5FFF7EBFF00F05DF8002008BDC046034970230A689A43503B13430B60704797
:40138000BC000020034A044B1A60C1225204034B1A60704700008301C0010B40C4010B40064A136806490B431360064A064B1A60C1225204054B1A607047C046A8020B4038
:4013C0000100001000008301C0010B40C4010B4070B50D1C161C04880123A3401C1C013CA00000194000642100F0E2FE01302B18A34200D9231C854201D3281A00E0002018
:40140000864203D39E4203D9062002E0062000E0002070BD01390843014B18607047C04600020B4010B5FFF7E3FE0024294B1C60294B1C601022294B1A60294B1C60294B80
:401440001C60294B1C60294B1C60294A1460294B1C6029490868294B0340C020C00003430B6027490B688020400103430B600121244B196024490B68244803430B60802330
:401480005B0423490B602348234908601360234A234B1A60FFF776FF2223224AD05CFFF773FEFFF765FF204B1B68204A1343204A1360242000F078FD0F221E4B1A601E4B35
:4014C0001C60053A1D4B1A60C02212031C4B1A6010BDC046F4000B40B4020B40C0020B4020030B4084010B4088020B4080020B4084020B4080010B4000040240FFF0FFFFA7
:4015000094020B40A0020B40A8020B4001000010A4020B404112000088010B400000030190020B4088030020BC0000200010008000000B4000030B40F0010B4010030B4094
:4015400004020B4038B5041C00F037FD0A490B687F25AB43094A1278A418A47A23430B6007490B68AB43074C2468A218527A13430B6000F026FD38BDC0010B409026000068
:40158000C4010B40C004002038B5041C151C01238B40181C0138002C02D0211C00F008FE2223054AD35C5C43053D012D02D8A02C00D8800838BDC0468803002008B50C4BDA
:4015C0001A78D3009B1A9B000A4AD3185B6823220949895CD87A431F012B04D8000480239B04184300E00004FFF714FF08BDC04609030020602300008803002008B5031C6D
:4016000023220549885C1988DA7AFFF7BDFF0004000C024B186008BD8803002014030B4010B50A2000F054FB0124314B1C600C2000F0BAFC2F4A304B1A6000222F4B1A6044
:4016400006322F4B1A602F4B1C60802252042E4B1A602E4B1C60832252002D4B1A60033AFF3A2C4B1A60013A2B4B1A60F02300E0013B274A1268520701D4002BF8D1002B86
:4016800002D10822244B1A6000241B4B1C601B4B1C60832252001E4B1A600A2000F022FB0A2000F00BFB164B1C60164B1C60164B1C605022154B1A604F3A184B1A600C4B8B
:4016C0001C60174A1368802149040B4313600222104B1A60F02300E0013B124A1268520701D0002BF8D1104A0B4B1A6010BDC04680010B4001010100B0020B40B4020B40FD
:4017000088020B4080020B4084020B40F0010B40F0000B40F8000B4040030B408C010B4000020B4000000B400103000008B5044A044B91680B439360FFF772FF08BDC046B4
:40174000880300208000010070B5041C857E067E00F033FC23681B680F22B24093431A1C0423B3401343666832680721A9408A4332602268136000F024FC70BD70B5174E09
:401780003278174DD3009B1A9B00EB185868154C002323703278D3009B1A9B00EB189968227893009B185B00CB180F4A1360FFF7C9FE3278D3009B1A9B0058592178CA00C5
:4017C000531A9B00C018094B1860FFF7BDFF084800F052FAFFF7AAFF70BDC04609030020602300000A030020C0040020BC0400204120000008B5C300181A8000054BC05892
:40180000CB00591A89004018034B1860FFF79CFF08BDC04660230000BC04002038B5041C007EA57E21680B680F22824093430B6000F0C3FB61680B680722AA4093431A1C1D
:401840000623AB4013430B6000F0BBFBA1680B68607E0122824093430B6038BD08B5064B1B78012B06D1054B1868FFF7D7FF0022014B1A7008BDC0460B030020BC04002067
:4018800070B5041C104DC3001B1A9B00EB185E68FFF7E4FFE4B20D490C700A78D3009B1A9B005A590A4B1A600A4A7F2390689843031C906009780B439360301CFFF79EFE4A
:4018C000FFF77CFE70BDC0466023000009030020BC0400208803002038B5C3001B1A9B00124AD3185D68C9B2114C21709968227893009B185B00CB180E4A1360FFF7C0FF77
:40190000281CFFF71FFE20780B4AC300181A800013689C4660441060FFF716FF0122074B1A70074800F0A8F938BDC046602300000A030020C0040020BC0400200B030020F6
:40194000C91F0000074B1A687F210A40064802431A60064A13680B40802109040B4313607047C046C0010B4000008301C4010B40F0B5474680B482B0071C0E1C90462E4A9F
:401980001178CB005B1A9B002C49CB185B680193402333701078C0B2294B1978C9B2FFF79BFFFFF7CFFF4025FFF7C0FE254A00E0013A254B1B7A5BB2002B01DA002AF7D193
:4019C000224B1B681C88BC4202D23378AB4333706D0833782B4333700198FFF7B3FD002DE2D1154B1A78D3009B1A9B00134A9858134B1978CA00531A9B00C018144B186023
:401A0000FFF70CFF0022134B1A70FFF7C9FC0198391C221CFFF7DCFC43461A7833789A4201D242461370094B1B6832785A7202B004BC9046F0BDC04609030020602300006F
:401A40000A0300203333000088030020C0040020BC0400200B030020F0B54F4680B484B0051C8946C3001B1A9B00384AD3185F68012303AA137038888340181C013848430E
:401A8000642100F095FB0190EAB2314B1A70314800F0F2F83C1C0A3400222F4B1A7000260AE00198211C03AAFFF762FF06432A4A13780133DBB21370EB005B1B9B00234A00
:401AC000D318254A12785B7E9342EAD803AB1B7801335B08BB7200221F4B1A7023E0EB005B1B9B00194AD3189A681B4B1B789C00E41864001419194B1C60637AB87A834252
:401B00000AD31B1AD8B260724B4658436330642100F04EFB607201E0002363720E4A13780133DBB21370EB005B1B9B00074AD318094A12785B7E9342D1D80022064B1A707F
:401B4000301C04B004BC9146F0BDC0466023000009030020C91F00000A030020C00400200004000C014B18607047C046080106400004000C014B18607047C04614010640A7
:401B800038B5041C0D1C00F018FAAC40024B1C6000F017FA38BDC0460800064008B500F00CFA064A116801230B43136000F009FA01201821FFF7E4FF08BDC0460000064056
:401BC000014B18607047C0463801064008B580229204084B1A600C22074B1A600120FFF7EFFFFA200001FFF7C3FF0020FFF7B8FF08BDC046000106402401064008B5064BF9
:401C00001B78002B04D1FFF7E1FF0122024B1A70FFF7C4FF08BDC0460C030020014B18607047C04630010640014B98667047C0460000002010B5041C00F0BFF9044A11681B
:401C4000044B0B40A4051C43146000F0BAF910BD08E400E0FFFF3FFF8022D200014B1A607047C04600E100E08022D200014B1A607047C04680E100E010B5041CFFF7F4FF18
:401C8000201CFFF7D1FF0320FFF7D4FFFFF7E4FF10BDC046024A1168024B0B401360704700000740FFFFFFBF034B18688023DB05184000D001207047000007401F231840CE
:401CC0001E3B8340181C014B1860704700E100E01F2318401E3B8340181C014B1860704780E100E01F2318401E3B8340181C014B1860704780E200E001BE704710B5041CB0
:401D000006E0084B586800F04FF9074B9C46644480231B029C42F4D8024B9868604300F043F910BDC00000200080FFFF30B583B000F0DCF8002848D000F03FF9041C244B12
:401D40001B6807221A409200131C1833214A12681207920FD3401A1C1F4B19681F4B19401F4B53438020C00184466344DB0B013B5B055B0D0B43A02149031943192A02D82B
:401D8000184A13430BE0184BD31818781A3A174B9B5CC318FF2B00D9FF239B050B430E4A1360134D2B680193302000F0D7F9114A13688021C9050B4313601420FFF79EFFD8
:401DC000019B2B60201C00F0FCF803B030BDC046080F0340280003400800074000F800C040420F000000D43FCDF1FF0F942600003000104000000740F0B583B0041E182CFB
:401E00000BD01C2809D0202807D0242805D0282803D02C2801D0302849D100F0CEF80190FFF742FF002803D0FFF734FF012600E00026214A136807218B4313601F4BE3182D
:401E40001B78DBB21E4A13601E4A13688B4313601D4803687F229343191C1C4BE3181B7813400B430360322000F09EF8182C16D9114F3B680725AB431A1C231C1C3B9B0837
:401E80002B4013433B60322000F08EF83A68AA43231C183B9B082C1C1C4014433C60012E01D1FFF743FF019800F08BF802E00020FFF722FF03B0F0BD080F0340CDF1FF0FBF
:401EC0000C0F0340100F0340180F0340B4F1FF0F08B500F072F8044A136804218B43136030BF00F06EF808BD10ED00E0034B1B68002B01DA012000E00020704700000740E2
:401F0000014A024B1A6070476588EDAC38000340014BD8667047C0460000002010B5041C00F04BF8044A13689B009B08A4071C43146000F046F810BD08E400E08022120157
:401F4000014B1A607047C04600E100E080221201014B1A607047C04680E100E010B5041CFFF7F4FF201CFFF7D3FF0320FFF7D6FFFFF7E4FF10BDC046031C04490868FE223C
:401F80000240012018401043086070470001044004490A68FD231A404000FB3B1840104308607047000104400230800803D001300238FCD1C046C0467047EFF3108072B6CF
:401FC000704780F31088704783225200144B1A60144B1A78D3009B1A9B00134AD3185B68124A12681204120C198801238B40013B9A4206D20E4B19680E4B1B785B00CA52B2
:4020000005E00B4A11680B4A127852008B520A4BDA880132DA80094A99680A409A607047F0000B400903002060230000D0000B40C004002090260000880300207FFFFEFF87
:4020400038B53C4B19783C4CCA00521A920010593A4A1578E9004A1B9200801883214900374A11601B78DA00D31A9B00E3185B68344A12681204120C198801238B40013B8F
:402080009A4206D2304B1968304B1B785B00CA5205E02D4A11682D4A127852008B52FFF7BDFB244B18782449C200121A92008A1850681B78DA00D31A9B00CB189B7D1F4A99
:4020C0001278013B93421DD91C4C23780133DBB22370184D2A78D3009B1A9B00CB189968227893009B185B00CB18174A1360FFF729FA2878C0B22178C9B2FFF77BFBFFF757
:402100008FFA15E000220D4B1A70114A114B91680B409360104A1278012A02D1FFF700F806E00B4A80218B439360D3880133D38038BDC04609030020602300000A03002009
:40214000F0000B40D0000B40C00400209026000088030020FFFFFEFF0803002038B5041CFFF72BFF051C102C05D8104A136803218B43136016E0202C07D80C490B680322EF
:402180009343023A13430B600CE0302C07D807490B6803229343013A13430B6002E00020FFF7AAFD281CFFF70CFF38BD30001040002243088B4274D303098B425FD3030A79
:4021C0008B4244D3030B8B4228D3030C8B420DD3FF22090212BA030C8B4202D31212090265D0030B8B4219D300E0090AC30B8B4201D3CB03C01A5241830B8B4201D38B033B
:40220000C01A5241430B8B4201D34B03C01A5241030B8B4201D30B03C01A5241C30A8B4201D3CB02C01A5241830A8B4201D38B02C01A5241430A8B4201D34B02C01A5241E5
:40224000030A8B4201D30B02C01A5241CDD2C3098B4201D3CB01C01A524183098B4201D38B01C01A524143098B4201D34B01C01A524103098B4201D30B01C01A5241C30834
:402280008B4201D3CB00C01A524183088B4201D38B00C01A524143088B4201D34B00C01A5241411A00D20146524110467047FFE701B5002000F00CF802BDC0460029F7D004
:4022C00003B5FFF775FF0EBC4243891A1847C0467047C046014B18687047C046340100200E4B70B500251E1C0D4CE41AA410A54204D0AB00F35898470135F8E700F0D8F97C
:40230000084B00251E1C084CE41AA410A54204D0AB00F35898470135F8E770BDBC260000BC260000BC260000C4260000002310B5934203D0CC5CC4540133F9E710BD031CB3
:402340008218934202D019700133FAE7704700000000000020202020202020202020202040250000AC0300203C040020000000000003002000000100010100005C2500000C
:40238000B80300204604002000000000FC020020000001000101000078250000C40300205004002000000000F8020020000001000101000094250000D00300205A04002078
:4023C00000000000F40200200000010001010000B0250000DC0300206404002000000000F00200200000010001010000CC250000E80300206E04002000000000EC020020B7
:402400000000010001010000E8250000F40300207804002000000000E8020020000001000101000004260000000400208204002000000000E40200200000010001010000CF
:40244000202600000C0400208C04002000000000E002002000000100010100003C260000180400209604002000000000DC0200200000010001010000582600002404002012
:40248000A004002000000000D802002000000100010100007426000030040020AA04002000000000D402002000000100010100000C0096004B4B07031E6420000C008C002A
:4024C000464606031E6420000C00C201646405031E6420000C006400323205031E6420000C0078003C3C04031E6420000C006400323204031E6420000C0096004B4B070382
:402500001E6420000C00B4005A5A06031E6420000C00B4005A5A06031E6420000C006400323204031E6420000C0020034B4B05031E6420000C0096004B4B04031E642000EE
:40254000000002400800044000000440040004400F000000010000000000000000000240080004400000044004000440F0000000020000000401030000000240080004408F
:402580000000044004000440000F000004000000080206000000024008000440000004400400044000F00000080000000C0309000004024008040440000404400404044018
:4025C0000F000000010000000000000000030240080304400003044004030440F0000000020000000401030000020240080204400002044004020440000F00000400000076
:40260000080206000002024008020440000204400402044000F00000080000000C030900000202400802044000020440040204400000F0002000000014050F0000020240BA
:402640000802044000020440040204400000000F400000001806120000020240080204400002044004020440000000F0800000001C07150000030240080304400003044058
:40268000040304400F000000010000000000000000000000EEDBC9B9AA9B8E82766B60564D443B332C241D17100A040043000000F8B5C046F8BC08BC9E46704731010000AC
:4026C000950B0000F8B5C046F8BC08BC9E46704709010000E826000088000020B0000000900300000000000000000000290B0000150B0000010B0000ED0A0000D90A000037
:40270000C50A0000B10A00009D0A0000890A0000750A0000610A00004D0A0000020000040100000000007017E02E00000C000000001BB7000000000000000000000000001A
:402740000000000000000000000000000000000000000000AC2600000000000000000000000000000000000000000000000000000000000000000000000000000000000087
:402780000000000000000000000000000000000000000000D40000200000000000000000000000000000000000000000000000000000000000000000000000000000000025
:4027C00000000000000000000000000000000000000000000000000000000000000000000000000000000000000000000000000000000000000000000000000000000000D9
:402800000000000000000000000000000000000000000000000000000000000000000000000000000000000000000000000000000000000000000000000000000000000098
:402840000000000000000000000000000000000000000000000000000000000000000000000000000000000000000000000000000000000000000000000000000000000058
:402880000000000000000000000000000000000000000000000000000000000000000000000000000000000000000000000000000000000000000000000000000000000018
:0200000490303A
:02000000CD151C
:0200000490402A
:1000000000000000000000000000000000000000F0
:0200000490501A
:0C0000000002190911A900011914DEBE4C
:0200000490600A
:0100000001FE
:00000001FF