:4000000000080020110000004D0E00004D0E000008B502F0D9F900F021FFC04610B5134C12232360182002F04BF980229200104B1A60104B104A1A60FE2109020F4A1160C4
:400040000F4A1A6000220F490A600F49196004210E4B19603E310E4B196002390D4B196001310D4B1960226010BDC04630001040080301400000014042FF0080000301404A
:4000800040FF00800403014041FF0080280003400C010140080101400001014008B572B6EE22174B1A60EE221202164B1A600E22154B1A600132154B1A60043A144B1A6036
:4000C000144A154B1A60EC23144A13603621144A1160144A1360E93B134A1360D8210901124A1160124A13600122124B1A600432114B1A60FFF792FF00F014FF08BDC04603
:400100000001024000030240000004401800044000010440A405000008010440000204400802044018020440000304400803044018030440000404401804044010B5064CB6
:400140002378002B07D1054B002B02D0044800E000BF0123237010BD3801002000000000702C000008B5084B002B03D00748084900E000BF07480368002B00D108BD064B17
:40018000002BFBD09847F9E700000000702C00003C010020880000200000000010B5184B5A221A70593A5A70164A117899705178D97091781971D2785A711A7E9A715A7E37
:4001C000DA719A7E1A72DA7E5A72002306E01A1C0A32C45C0A498C540133DBB2082BF6D90022002305E00649C95C8A18D2B20133DBB2122BF7D95242014BDA7410BDC046C8
:40020000540100208C00002010B5002305E0C45CCA5C944205D10133DBB2032BF7D9012000E0002010BDC04610B51B4B1B7F632B31D9194A00231377537F0133DBB2537761
:400240003B2B28D9141C00235377937F0133DBB29377124A52681370201C2030FFF79EFF1020211C00F09CFBA37F3B2B13D90B4A137A0133DBB21372172B0CD90023137206
:40028000D2681370044C201C2030FFF787FF1020211C00F085FB10BD540100208C00002010B5002490E2201C00F0B0FD002800D141E2C44B1B6901221A700B2C00D93AE2A2
:4002C000A300C14AD3589F46BE4B5B691A78002A01D11A7001E000221A7001213023BB4AD15428E2B74B5B691A78042A02D100221A7011E004221A70B24B99690A780820D6
:4003000082430A7099690A78083082430A709A69117804230B431370AA4B2322D9690A701B6A37321A7001213023A84AD15402E2A44B5B691B78042B06D1A24BDA6913781A
:40034000272B01D8013313709E4B5B691B780B2B06D19C4BDA691378272B01D80133137001213023994AD154E5E1964B5B691B78042B06D1934BDA6913781E2B01D9013B2B
:400380001370904B5B691B780B2B06D18D4BDA6913781E2B01D9013B1370012130238B4AD154C8E1874B5B691A78032A02D100221A7011E003221A70824B996908780422F2
:4003C00002430A7099690A78082082430A709A69137810218B4313707A4B0022D9690A701B6A1E321A7001213023784AD154A2E1744B5B691B78012B06D0032B04D0042B19
:4004000002D00B2B00D096E16E4B99690A78042082430A7099690A78043082430A709A69137810218B4313703123684AD35C012B0FD0002B02D0022B16D01FE00121312301
:40044000624AD1545F4B9A69117808230B43137014E0022131235D4AD1545A4B9A69117810230B43137009E0564B9A69117804230B43137000213123544AD1540121302352
:40048000524AD15457E14F4B5B691A78012A02D100221A7011E001221A704A4B99690878042202430A7099690A78082082430A709A69137810218B431370424B99690A7803
:4004C000022082430A700022D9690A701B6A1E321A70012130233D4AD1542CE1394B5B691A780B2A02D100221A7011E00B221A70344B99690878042202430A7099690A7890
:40050000082082430A709A69137810218B4313702C4B2322D9690A701B6A37321A70012130232A4AD15406E1264B5B691B78042B06D1244B1A6A1378772B01D80F331370D3
:40054000204B5B691B78032B06D11E4B1A6A13783B2B01D80F3313701A4B5B691B78012B06D1184B1A6A13783B2B01D80F331370144B5B691B780B2B06D1124B1A6A1378D4
:40058000772B01D80F3313700E4B5B691B780F2B06D10C4B1A6A1378952B01D80F331370084B5B691B780D2B06D1064B1A6A1378772B01D80F33137001213023034AD15436
:4005C000B9E0C0468C000020742C0000540100207F4B5B691B78042B06D17D4B1A6A13783C2B01D90F3B1370794B5B691B78032B06D1774B1A6A13780F2B01D90F3B1370BD
:40060000734B5B691B78012B06D1714B1A6A13781E2B01D90F3B13706D4B5B691B780B2B06D16B4B1A6A13783C2B01D90F3B1370674B5B691B780F2B06D1654B1A6A13781F
:400640005A2B01D90F3B1370614B5B691B780D2B06D15F4B1A6A13783C2B01D90F3B1370012130235B4AD15465E0594B5B691B78DA1E012A01D90B2B5DD1554B9B691A785F
:40068000920704D51A7802218A431A7003E0197802220A431A70012130234E4AD1544AE04B4B5A691378002B05D00C2B03D00F2B01D00D2B36D132234649CB5C012B0DD0A5
:4006C000002B04D0022B18D0032B25D02FE0012032234049C854263B137028E0022132233C4AD1543A4B0022D9690A707832196A0A705B69693A1A7019E003213223354A9E
:40070000D154334B0022D9690A705A32196A0A705B694D3A1A700AE0002332212D484354137004E00023137032222A498B5401213023284AD154002000F078FB002809D02B
:40074000244B012233215A54214909690220087030215A54022000F069FB002807D01C4B1B6903221A70012130231A4AD154032000F05CFB002807D0154B1B6904221A7066
:4007800001213023134AD154114B5B691B78002B18D10F4B99690A78042082430A7099690A78043082430A7099690A78083082430A709A69137802218B43137000213123D1
:4007C000044AD1540134E4B20B2C00D86BE510BD8C0000205401002008B53423244AD35C012B15D0002B02D0022B19D03EE033231F4AD35C002B39D0131C002133229954C7
:400800000131013299541B481B4900F0C9F92DE0184800F0CFF902213423154AD15425E0144800F0C7F9002803D001213423104AD15410200E49383100F0CAF8002815D017
:400840000B483E300D49FFF7DFFC00280AD0084B1A1C383291781976D1785976117999765279DA7601213423014AD15408BDC0465401002020020020B80B00008C0000205D
:4008800008B5054950228B5A01338B5200F080F9012001F0C3FB08BD5401002010B562B600F098F901F0E2FD9A214900081C2E4A01F04EFE01F0A2FB2C4801F0B3FD00F0B4
:4008C0004FFB00F009FE2A4B2A4A927F59680A70DA681B7A13705023264AD35A092B1DD900215023D152137F013313775231535A01339BB25352204A934203D91F49522399
:400900001C4AD15200F0B0FD002807D100F050FB00F07EFC00F072F900F0DEFDFFF784FC5223144AD25AC8239B009A4207D95423104AD35C002B02D000215423D154FFF75F
:40094000AFFCFFF749FF30230A4AD35C002BC2D0141C00223023E2542034201CFFF71EFC201CFFF71BFCB6E728020020810800008C0000205401002050C30000102700005C
:40098000402801D8012000E00020704708B5002000F09AF8830601D5002000E0012008BD38B5041C0D1CFFF7EBFF00280ED0002D0CD0E02000F09AF8201C291C00F0A2F8C8
:4009C000A02000F093F8D02000F090F838BDC04638B5041C0D1CFFF7D3FF002818D0002D18D0C02000F082F800F0C0F8002813D0002000F0C1F8FFF7C9FF00280ED0201C70
:400A0000291C00F09BF8F02000F070F8012006E0002004E0002002E0002000E0002038BD38B5051C002415E06BB2002B03DA012001F0FAFA02E0002001F0F6FAC046012008
:400A400001F006FBC046002001F002FB6D00EDB20134E4B2072CE7D938BDC04638B5012001F0E2FAC0460025002413E001F0E8FA002804D06D0001231D43EDB201E06D00E1
:400A8000EDB2012001F0E4FAC046002001F0E0FA0134E4B2072CE9D9C046002001F0C4FA281C38BD38B5051C0C1C002001F0DCFA281CFFF7B5FFC046201CFFF7B1FF0120D4
:400AC00001F0D2FA38BDC04610B5041C002001F0CBFA40202043FFF7A3FFC046FFF7BEFF041C012001F0C0FA201C10BD10B5041C002001F0B9FA201CFFF792FF012001F0FC
:400B0000B3FA10BD70B5051C0E1C411EC9B20320FFF7C8FF002001F0A7FA0520FFF780FF002404E0305DFFF77BFF0134E4B2AC42F8D3012001F098FA70BDC046F8B5061C96
:400B40000F1C002001F090FA4520FFF769FF002405E03D19FFF782FF28700134E4B2B442F7D3012001F080FAF8BDC046014B18787047C046AC010020014B18707047C046B5
:400B8000AC010020014B18887047C046AE010020024A1388013313807047C046AE01002038B5041C0D1CFFF7EDFF6080A5800023237038BD10B5041C0378002B08D1FFF794
:400BC000E1FF6388C01AA388984201DD01232370207810BD00230CE00748C25C01218A4301318A4304210A43F7210A40C2540133DBB20B2BF0D97047B001002038B50024A4
:400C0000FBE00B2C00D99EE0A3007E4AD3589F46002000F0E1FA031C581E83417A4A105D01218843184310558DE0012000F0D4FA031C581E8341744A105D01218843184396
:400C4000105580E0022000F0C7FA031C581E83416D4A105D012188431843105573E0032000F0BAFA031C581E8341674A105D012188431843105566E0042000F0ADFA031C54
:400C8000581E8341604A105D012188431843105559E0052000F0A0FA031C581E83415A4A105D01218843184310554CE0062000F093FA031C581E8341534A105D0121884318
:400CC000184310553FE0072000F086FA031C581E83414D4A105D012188431843105532E0082000F079FA031C581E8341464A105D012188431843105525E0092000F06CFA50
:400D0000031C581E8341404A105D012188431843105518E00A2000F05FFA031C581E8341394A105D01218843184310550BE00B2000F052FA031C581E8341334A105D01219E
:400D4000884318431055211C2F4B1A5DD307DB0FDBB29207D20F934222D02B4A125D5207D20F93420FD0284B1B191B7B952B05D8254A105D08230343135504E0224A105D0A
:400D80002023034313552048435C01221A4052000225AB4313434354411801230B762AE0194A125D5207D20F934220D1164B1B191B7B962B16D9144A1219127E012A0CD194
:400DC000114A125DD20604D40F48055D10222A4302550D4A5218002010760B4A511801330B7308E0084A111901330B7303E0064B191900230B730134E4B20B2C00D800E715
:400E000038BDC046A42C0000B001002010B5021C054B1B5C1B07D80F04D003498B5C0824A3438B5410BDC046B001002010B5021C054B1B5CDB06D80F04D003498B5C10241A
:400E4000A3438B5410BDC046B001002008B501F0D1FE03680C2B00D1FEE7FEE770B50F4E0F4D13E029686B68AC68002202E001C901C30432A242FAD1E868002202E000211A
:400E800002C304328242FAD11035013E002EE9D101F0B6FEFFF702FDFEE7C046010000006C30000008B500230AE0032B03D89A000949505800E009489900094A885001338A
:400EC0001F2BF2D9FFF7EAF80022064B1A6080229205054B1A6008BD000000004D0E0000000000208000002008ED00E00B4B1B68002803D080221206134301E05B005B08DD
:400F0000064A1360064B1B68002802D02022134301E020229343024A13607047002002402800034008B51022024B1A600120FFF7DDFF08BDC0020B4008B5084B1B78002B03
:400F400006D100F00DF900F059F90122034B1A7000F052F800F004FC08BDC046D401002038B5FFF7E9FF051E02D100F033FB051C002D02D100F0B0FA051C002D12D101F0C1
:400F8000ACFC041C07E001F007FA201C01F0A9FC01F0A3FC041C00F067FA0028F3D1201C01F09FFC00F0ACF900F0FEF9281C38BD70B50F4E0024002515E06B0902339B0050
:400FC0000C4AD3185A681F232B40DA40131CDB0707D5301C00F048F8041C281C311C00F093F81C3601350B2DE7D9201C70BDC046E02C00002802002070B500230BE01348BF
:40100000191D890000220A509A1C920082180121494251600133002BF1D00D4C0C2310E06668227E094B5B1900211975012A06D12069002803D0F179E28A01F010FE1C340D
:401040002B1C5D1E002BEBD170BDC04628020020E02C00000B884A889B1A0022CA8002799A4200DACB807047F0B583B0071C84684568037E01930026002300930BE0281CD1
:40108000211C019A00F0A6F90090281C211CFFF7E1FF0A340136FB8AB342F0D8009803B0F0BDC046F0B5CA8A8D684F680B69012125E00C1C044003D17E88BA79B21802E0C8
:4010C0007A88BE79921BEE88B24201D3002200E00A1CA24202D01E78013E1E70A24202D01C78002C07D188431043002A01D1FA7900E001221A7049000A3501336246541E4D
:40110000A446002AD5D1F0BD38B5041C0A7E134B1B181D7D012A04D1281CFFF7C3FF051C02E0002001F014F80C4B1B191D7563091F2214401E3AA240141C002D06D1074990
:4011400004339B005A58A2435A5005E0034A04339B0099580C439C5038BDC0462802002038B5194C201C00219A22520001F077FD164B238098235B006380293BFF3B238483
:4011800001221A33E25403320133E254201C24300F495C318C3201F059FD0E490C1C0C340C230CE0A268E38A04E00B78537201310A32031C581E002BF7D11C342B1C5D1EEB
:4011C000002BEFD138BDC0462802002058F5FFFFD42D0000D42C00000B280BD81F220240012393401A1C430904339B0002495858104000E000207047280200200023024AD4
:401200009380024A13607047280200200802002038B500250022364B9C88E4B2052C1AD8A3003449CB589F460122334B1A6012E00022314B1A6001320DE0FFF791FE00220B
:401240002D4B1A600125013205E002222A4B1A60013A00E00122002A0FD001F03EFB244B9B88DBB2A34205D1214A918880231B020B43938001F035FB00221F4B1B68012BDF
:40128000C9D0022B32D11A4A2B33FF33D35CDBB22E21FF31525CD2B20B2B27D8D900C91A890016484118C98A91421FD91048C18897246400005B89B2814217D0D900CB1AF7
:4012C0009B000E49CB189C6893009A185200A41801F003FB064BDA8892B2972149005A52228892B202315A5201F0FBFA281C38BD280200201030000008020020E02C000083
:401300000C230BE0CB005B1A9B00064AD318DB8A00E0131C5A1E002BFBD10B1C591E002BF0D17047E02C0000C9B2062902D08318002119715300195AC31859808218002354
:401340001372704770B50D4DC3001A1A9200AA1894688A00511849006418181A80002818067E012305E0201C311C2A1CFFF7DCFF2B1C5D1E002BF6D170BDC046E02C0000A1
:4013800038B5051CC3001B1A9B00064AD318DB8A04E0281C211CFFF7D5FF231C5C1E002BF7D138BDE02C000010B50C2303E0201CFFF7E6FF231C5C1E002BF8D110BDC046A2
:4013C0009840031C534380204000801A41435818000A7047F0B583B0071C0E1C019201233BE06300985BF3185988884205D3431A321900251572012201E00B1A0022002A8D
:4014000011D17D799D420ED233191B7A3A7A934205D3301C0199221CFFF786FF1CE032190133137218E03D799D4204D27D799D4212D9002A10D16B461B79062B0CD00902A9
:4014400035192B79194301220823FFF7B9FF020A6300F3185A802871231C5C1E002BC0D1002003B0F0BDC046024B9B68802018407047C0462802002010B50F4B9B68DB03EB
:401480000FD40B280FD8430902339B000A4AD3185A681F230340DA40131CDB0705D4012404E0112402E0012400E00024002C01D100F0E6FB201C10BD2802002008B5054B11
:4014C0009B68DB0303D400F059FB002000E0112008BDC0462802002010B50F4B9B681B0618D400240120404211E0201CFFF7C4FF00280BD10A2C03D80122084B1A7002E0D7
:401500000022064B1A70FFF7D9FF04E001340B2CEBD900E0112010BD280200200C02002010B5174A53780133DBB253705078C0B2FFF7A2FF041E09D1114B5B780B2B02D1FC
:4015400000220F4B1A70FFF7B9FF15E00C4B5B780B2B0AD10B4A7533916899430B021B0A040623439360002406E006498B681B021B0A020613438B60002CD2D110BDC046A7
:401580000C02002028020020074A084B1A6001380002074B1860054B1B68002BFBDB054A024B1A607047C04640000040000001400003014040FF008008B5031E0B2B01D838
:4015C000002000E00120002803D1181C3C2100F043FC08BD38B50024002504E0201CFFF7EBFF054301340B2CF8D9281C38BDC04670B5002516E0EB005B1B9B000B4A9E58C8
:40160000002406E0E000001B8000301800F006FB0134EB005B1B9B00044AD3189B7DA342F0D801350B2DE6D970BDC046E02C00002323014AD05C7047280200200203121A62
:4016400001238B40191C01398A4205D30302181A814203D9052002E0062000E00020C0B27047C04670B50E1CFFF7E2FF051C3188002200F089F9041C9F2D08D9FF235B0058
:40168000984204D92C4901F0A9FA00291FD09F2D07D9FE2C05D9201CFF2101F09FFA002917D09F2D07D97E2C05D9201C7F2101F095FA00290FD09F2D0FD93E2C0FD9201CCE
:4016C0003F2101F08BFA00290BD000240AE0042408E0032406E0022404E0002402E0002400E00124002C04D13188281CFFF7A6FF041C631EDBB2032B01D8102000E00020AE
:40170000002C10D0002810D064235843291C01F0DFF9002301E0013340000928FBD90A2804D9013B02E0002300E00023DBB21B012343F37270BDC046FF01000010B5002405
:4017400009E0E3001B1B9B00044AD3185968201CFFF788FF01340B2CF3D910BDE02C000008B5FFF7EBFF00F05DF8002008BDC046034970230A689A43503B13430B6070470A
:40178000B8000020034A044B1A60C1225204034B1A60704700008301C0010B40C4010B40064A136806490B431360064A064B1A60C1225204054B1A607047C046A8020B4038
:4017C0000100001000008301C0010B40C4010B4070B50D1C161C04880123A3401C1C013CA00000194000642101F072F901302B18A34200D9231C854201D3281A00E0002088
:40180000864203D39E4203D9062002E0062000E0002070BD01390843014B18607047C04600020B4010B5FFF7E3FE0024294B1C60294B1C601022294B1A60294B1C60294B7C
:401840001C60294B1C60294B1C60294A1460294B1C6029490868294B0340C020C00003430B6027490B688020400103430B600121244B196024490B68244803430B6080232C
:401880005B0423490B602348234908601360234A234B1A60FFF776FF2223224AD05CFFF773FEFFF765FF204B1B68204A1343204A1360242001F008F80F221E4B1A601E4BA5
:4018C0001C60053A1D4B1A60C02212031C4B1A6010BDC046F4000B40B4020B40C0020B4020030B4084010B4088020B4080020B4084020B4080010B4000040240FFF0FFFFA3
:4019000094020B40A0020B40A8020B4001000010A4020B404112000088010B400000030190020B4028020020B80000200010008000000B4000030B40F0010B4010030B40F5
:4019400004020B4038B5041C00F0C7FF0A490B687F25AB43094A1278A418A47A23430B6007490B68AB43074C2468A218527A13430B6000F0B6FF38BDC0010B40283000009E
:40198000C4010B406003002038B5041C151C01238B40181C0138002C02D0211C01F098F82223054AD35C5C43053D012D02D8A02C00D8800838BDC0462802002008B50C4B0D
:4019C0001A78D3009B1A9B000A4AD3185B6823220949895CD87A431F012B04D8000480239B04184300E00004FFF714FF08BDC0460D020020E02C00002802002008B5031C3E
:401A000023220549885C1988DA7AFFF7BDFF0004000C024B186008BD2802002014030B4010B50A2000F080FB0124314B1C600C2000F04AFF2F4A304B1A6000222F4B1A60E2
:401A400006322F4B1A602F4B1C60802252042E4B1A602E4B1C60832252002D4B1A60033AFF3A2C4B1A60013A2B4B1A60F02300E0013B274A1268520701D4002BF8D1002B82
:401A800002D10822244B1A6000241B4B1C601B4B1C60832252001E4B1A600A2000F04EFB0A2000F037FB164B1C60164B1C60164B1C605022154B1A604F3A184B1A600C4B2F
:401AC0001C60174A1368802149040B4313600222104B1A60F02300E0013B124A1268520701D0002BF8D1104A0B4B1A6010BDC04680010B4001010100B0020B40B4020B40F9
:401B000088020B4080020B4084020B40F0010B40F0000B40F8000B4040030B408C010B4000020B4000000B400103000008B5044A044B91680B439360FFF772FF08BDC046B0
:401B4000280200208000010070B5041C857E067E00F0C3FE23681B680F22B24093431A1C0423B3401343666832680721A9408A4332602268136000F0B4FE70BD70B5174E42
:401B80003278174DD3009B1A9B00EB185868154C002323703278D3009B1A9B00EB189968227893009B185B00CB180F4A1360FFF7C9FE3278D3009B1A9B0058592178CA00C1
:401BC000531A9B00C018094B1860FFF7BDFF084800F07EFAFFF7AAFF70BDC0460D020020E02C00000E020020600300205C0300206129000008B5C300181A8000054BC0586C
:401C0000CB00591A89004018034B1860FFF79CFF08BDC046E02C00005C03002038B5041C007EA57E21680B680F22824093430B6000F053FE61680B680722AA4093431A1C5E
:401C40000623AB4013430B6000F04BFEA1680B68607E0122824093430B6038BD08B5064B1B78012B06D1054B1868FFF7D7FF0022014B1A7008BDC0460F0200205C0300202E
:401C800070B5041C104DC3001B1A9B00EB185E68FFF7E4FFE4B20D490C700A78D3009B1A9B005A590A4B1A600A4A7F2390689843031C906009780B439360301CFFF79EFE46
:401CC000FFF77CFE70BDC046E02C00000D0200205C0300202802002038B5C3001B1A9B00124AD3185D68C9B2114C21709968227893009B185B00CB180E4A1360FFF7C0FFA9
:401D0000281CFFF71FFE20780B4AC300181A800013689C4660441060FFF716FF0122074B1A70074800F0D4F938BDC046E02C00000E020020600300205C0300200F020020F9
:401D4000E9280000074B1A687F210A40064802431A60064A13680B40802109040B4313607047C046C0010B4000008301C4010B40F0B5474680B482B0071C0E1C90462E4A72
:401D80001178CB005B1A9B002C49CB185B680193402333701078C0B2294B1978C9B2FFF79BFFFFF7CFFF4025FFF7C0FE254A00E0013A254B1B7A5BB2002B01DA002AF7D18F
:401DC000224B1B681C88BC4202D23378AB4333706D0833782B4333700198FFF7B3FD002DE2D1154B1A78D3009B1A9B00134A9858134B1978CA00531A9B00C018144B18601F
:401E0000FFF70CFF0022134B1A70FFF7C9FC0198391C221CFFF7DCFC43461A7833789A4201D242461370094B1B6832785A7202B004BC9046F0BDC0460D020020E02C0000DF
:401E40000E0200203333000028020020600300205C0300200F020020F0B54F4680B484B0051C8946C3001B1A9B00384AD3185F68012303AA137038888340181C0138484327
:401E8000642100F025FE0190EAB2314B1A70314800F01EF93C1C0A3400222F4B1A7000260AE00198211C03AAFFF762FF06432A4A13780133DBB21370EB005B1B9B00234A3C
:401EC000D318254A12785B7E9342EAD803AB1B7801335B08BB7200221F4B1A7023E0EB005B1B9B00194AD3189A681B4B1B789C00E41864001419194B1C60637AB87A83424E
:401F00000AD31B1AD8B260724B4658436330642100F0DEFD607201E0002363720E4A13780133DBB21370EB005B1B9B00074AD318094A12785B7E9342D1D80022064B1A70E9
:401F4000301C04B004BC9146F0BDC046E02C00000D020020E92800000E020020600300200004000C014B18607047C046080106400004000C014B18607047C046140106404C
:401F800038B5041C0D1C00F0A8FCAC40024B1C6000F0A7FC38BDC0460800064008B500F09CFC064A116801230B43136000F099FC01201821FFF7E4FF08BDC046000006400A
:401FC000014B18607047C0463801064008B580229204084B1A600C22074B1A600120FFF7EFFFFA200001FFF7C3FF0020FFF7B8FF08BDC046000106402401064008B5064BF5
:402000001B78002B04D1FFF7E1FF0122024B1A70FFF7C4FF08BDC04610020020014B18607047C0463001064004490A68F7231A40C000EF3B18401043086070470001044063
:40204000024B18680007C00F7047C0460401044004490A68FB231A408000F73B184010430860704700010440031C04490868FE220240012018401043086070470002044050
:40208000014B98667047C0460000002010B5041C00F023FC044A1168044B0B40A4051C43146000F01EFC10BD08E400E0FFFF3FFF8022D200014B1A607047C04600E100E091
:4020C0008022D200014B1A607047C04680E100E010B5041CFFF7F4FF201CFFF7D1FF0320FFF7D4FFFFF7E4FF10BDC046024A1168024B0B401360704700000740FFFFFFBFB6
:40210000034B18688023DB05184000D001207047000007401F2318401E3B8340181C014B1860704700E100E01F2318401E3B8340181C014B1860704780E100E01F231840A1
:402140001E3B8340181C014B1860704780E200E001BE704738B5041C0D1C0F2802D90020FFF7F6FFA400034B9C4664442068256038BDC0464000002070B5041C0E1E032E03
:4021800002D90020FFF7E4FF0F2C02D90020FFF7DFFF03252540ED00063500F09EFBA408A400074B9C46644423680322AA409343AE40351C1D43256000F093FB70BDC04692
:4021C00000E400E010B5041C06E0084B586800F07BFB074B9C46644480231B029C42F4D8024B9868604300F06FFB10BDBC0000200080FFFF30B583B000F0DCF8002848D004
:4022000000F06BFB041C244B1B6807221A409200131C1833214A12681207920FD3401A1C1F4B19681F4B19401F4B53438020C00184466344DB0B013B5B055B0D0B43A02146
:4022400049031943192A02D8184A13430BE0184BD31818781A3A174B9B5CC318FF2B00D9FF239B050B430E4A1360134D2B680193302000F003FC114A13688021C9050B4359
:4022800013601420FFF79EFF019B2B60201C00F028FB03B030BDC046080F0340280003400800074000F800C040420F000000D43FCDF1FF0F2C300000300010400000074069
:4022C000F0B583B0041E182C0BD01C2809D0202807D0242805D0282803D02C2801D0302849D100F0FAFA0190FFF70AFF002803D0FFF7FCFE012600E00026214A1368072114
:402300008B4313601F4BE3181B78DBB21E4A13601E4A13688B4313601D4803687F229343191C1C4BE3181B7813400B430360322000F0CAFA182C16D9114F3B680725AB430D
:402340001A1C231C1C3B9B082B4013433B60322000F0BAFA3A68AA43231C183B9B082C1C1C4014433C60012E01D1FFF743FF019800F0B7FA02E00020FFF7EAFE03B0F0BD8E
:40238000080F0340CDF1FF0F0C0F0340100F0340180F0340B4F1FF0F08B500F09EFA044A136804218B43136030BF00F09AFA08BD10ED00E0034B1B68002B01DA012000E0B9
:4023C0000020704700000740014A024B1A6070476588EDAC38000340014BD8667047C0460000002010B5041C00F077FA044A13689B009B08A4071C43146000F072FA10BD9A
:4024000008E400E080221201014B1A607047C04600E100E080221201014B1A607047C04680E100E010B5041CFFF7F4FF201CFFF7D3FF0320FFF7D6FFFFF7E4FF10BDC046F2
:4024400008B50720FFF766FE08BDC04608B500F01DF808BD08B5044A1368802109060B431360FFF7EDFF08BD0000084008B5064B1B78002B04D1FFF7E9FF0122024B1A706D
:40248000FFF7E8FF08BDC0461402002010B500241A4B1C601A4A1B4B1A601B4B1B4A13601B4A14601B491C4A11601C4A13601C4B1C600720FFF738FE07200321FFF75CFE34
:4024C00007201849FFF746FE174B1C60174B1C605222FF32164B1A60164B1C60164B1C60164B1C60503AFF3A154B1A70154B1C70154B1C80154B1C8010BDC046000008409B
:4025000000080040600008400701008000030840040308401000FE0010030840000208400402084081250000C80E0840880E0840480F0840080F0840C80F0840880F0840EA
:40254000680300206C030020660300206403002070B5061C0D1C141E0BD00720FFF7E4FD044B1C60044B1E80044B1D800720FFF7D1FD70BD70030020740300206A03002043
:4025800070B5B24B1B68002B00D09847B04B1C88B04B1D68B04B1E680223FF331D4236D0AE4A13685B005B081360AD4B1A7820218A431A70197810220A431A70A94B1B6869
:4025C000DB060BD4A24B1A88A74B1B889A420AD0A34A117808230B43137004E0A04A117802230B431370A14A1168A14B0B4013600023A04A13609B4A136002229E4B1A7005
:40260000964A1368802109060B4313601AE1F30602D50022994B1A600A23334200D1A3E0974B1B685B0769D5964B1A68924B1B78012B04D0002B22D0022B16D057E0924B71
:402640001B88002B0DD00121904B1960904B1B681B19D2B21A7001348B4A1388013B138048E00222894B1A6044E00121874B1960D2B2854B1A8000227F4B1A703AE0824BAF
:402680001B881B021A43834B1B8893422BD901217E4B1960804B1B88934202D99B1A9BB200E0002378490B80072B03D80121724B197014E0082B09D16C490B68A020000280
:4026C00003430B6000216B4B196008E067490B688020800103430B600821664B1960624B1A80141C06E00222684B1A6002E00020FFF72EFD0422694B1A6035E05B4B1B6846
:402700009B0431D5B3070DD5654B1B681F211940564A1068564B03401360012014E00821012011E0584B1988083989B219800829F5D8002008E0564B1B681B19514A126801
:40274000D2B21A70013401390029F4D1002808D1464A1368802109020B4313600022454B1A600C224D4B1A60B3074AD5EB0615D50023404A13603B4A13603B4B1B88A3422F
:4027800001D1022300E00A232B40354A11780B4320218B4313700222374B1A706B062ED52F4A117820230B4313702F4B1B881C1C3C4A1268D20612D5364A1288D31A324A71
:4027C0001380394B1A68802149020A431A601968364A0A401A601022224B1A6002E00422244B1A600122324B1A603249194B196031490868102303430B60244B1A60154B35
:402800001D60154B1B685B071CD51F4B1B88002B0CD01F4B1B681B191B78DBB2274A13600134194A1388013B138002E0FF22234B1A60234B1B681F221340082BE5D10F3A08
:40284000204B1A60024B1C8070BDC0461802002066030020400F0840000E0840000008406C030020880F08406403002060000840FF5FFFFFC80F084068030020880E0840DE
:40288000CC0F0840400308401C0200206C00084070030020740300206A030020C00F0840080308406400084004020840FFFFFEFF800E0840FF0F0000480F08404002084055
:4028C00008020840800F08400230800803D001300238FCD1C046C0467047EFF3108072B6704780F31088704783225200144B1A60144B1A78D3009B1A9B00134AD3185B6825
:40290000124A12681204120C198801238B40013B9A4206D20E4B19680E4B1B785B00CA5205E00B4A11680B4A127852008B520A4BDA880132DA80094A99680A409A6070477C
:40294000F0000B400D020020E02C0000D0000B406003002028300000280200207FFFFEFF38B53C4B19783C4CCA00521A920010593A4A1578E9004A1B9200801883214900F2
:40298000374A11601B78DA00D31A9B00E3185B68344A12681204120C198801238B40013B9A4206D2304B1968304B1B785B00CA5205E02D4A11682D4A127852008B52FFF74A
:4029C0002DF9244B18782449C200121A92008A1850681B78DA00D31A9B00CB189B7D1F4A1278013B93421DD91C4C23780133DBB22370184D2A78D3009B1A9B00CB1899681C
:402A0000227893009B185B00CB18174A1360FEF799FF2878C0B22178C9B2FFF7EBF8FEF7FFFF15E000220D4B1A70114A114B91680B409360104A1278012A02D1FEF770FDFA
:402A400006E00B4A80218B439360D3880133D38038BDC0460D020020E02C00000E020020F0000B40D0000B40600300202830000028020020FFFFFEFF0C02002038B5041CC0
:402A8000FFF72BFF051C102C05D8104A136803218B43136016E0202C07D80C490B6803229343023A13430B600CE0302C07D807490B6803229343013A13430B6002E00020BE
:402AC000FFF746FB281CFFF70CFF38BD30001040002243088B4274D303098B425FD3030A8B4244D3030B8B4228D3030C8B420DD3FF22090212BA030C8B4202D312120902FE
:402B000065D0030B8B4219D300E0090AC30B8B4201D3CB03C01A5241830B8B4201D38B03C01A5241430B8B4201D34B03C01A5241030B8B4201D30B03C01A5241C30A8B4264
:402B400001D3CB02C01A5241830A8B4201D38B02C01A5241430A8B4201D34B02C01A5241030A8B4201D30B02C01A5241CDD2C3098B4201D3CB01C01A524183098B4201D3DD
:402B80008B01C01A524143098B4201D34B01C01A524103098B4201D30B01C01A5241C3088B4201D3CB00C01A524183088B4201D38B00C01A524143088B4201D34B00C01A77
:402BC0005241411A00D20146524110467047FFE701B5002000F00CF802BDC0460029F7D003B5FFF775FF0EBC4243891A1847C0467047C046014B18687047C04630010020B9
:402C00000E4B70B500251E1C0D4CE41AA410A54204D0AB00F35898470135F8E700F014FA084B00251E1C084CE41AA410A54204D0AB00F35898470135F8E770BD54300000FB
:402C400054300000543000005C300000002310B5934203D0CC5CC4540133F9E710BD031C8218934202D019700133FAE77047000000000000C8020000E40200003003000077
:402C80006A030000A4030000F003000086040000DC04000028050000D00500006A060000A0060000100C00002A0C0000440C00005E0C0000780C0000920C0000AC0C0000A5
:402CC000C60C0000E00C0000FA0C0000140D00002E0D0000202020202020202020202020C02E00004C020020DC02002000000000040200200000010001010000DC2E0000A7
:402D000058020020E602002000000000000200200000010001010000F82E000064020020F002002000000000FC0100200000010001010000142F000070020020FA0200201D
:402D400000000000F80100200000010001010000302F00007C0200200403002000000000F401002000000100010100004C2F0000880200200E03002000000000F001002094
:402D80000000010001010000682F0000940200201803002000000000EC0100200000010001010000842F0000A00200202203002000000000E80100200000010001010000B2
:402DC000A02F0000AC0200202C03002000000000E40100200000010001010000BC2F0000B80200203603002000000000E00100200000010001010000D82F0000C4020020D0
:402E00004003002000000000DC0100200000010001010000F42F0000D00200204A03002000000000D801002000000100010100000C0078003C3C07031E6420000C0082007B
:402E4000414106031E6420000C001202C8C806031E6420000C0054002A2A04031E6420000C006400323204031E6420000C006400323204031E6420000C0078003C3C07036D
:402E80001E6420000C008C00464606031E6420000C00F000787806031E6420000C006400323204031E6420000C006400323205031E6420000C006400323204031E64200092
:402EC000000002400800044000000440040004400F000000010000000000000000000240080004400000044004000440F00000000200000004010300000002400800044006
:402F00000000044004000440000F000004000000080206000000024008000440000004400400044000F00000080000000C030900000402400804044000040440040404408E
:402F40000F000000010000000000000000030240080304400003044004030440F0000000020000000401030000020240080204400002044004020440000F000004000000EC
:402F8000080206000002024008020440000204400402044000F00000080000000C030900000202400802044000020440040204400000F0002000000014050F000002024031
:402FC0000802044000020440040204400000000F400000001806120000020240080204400002044004020440000000F0800000001C071500000302400803044000030440CF
:40300000040304400F00000001000000000000005612000028120000301200003A1200004A1200005412000000000000EEDBC9B9AA9B8E82766B60564D443B332C241D1789
:40304000100A040043000000F8B5C046F8BC08BC9E46704765010000A50E0000F8B5C046F8BC08BC9E4670473D0100008030000088000020B00000004002000000000000C2
:4030800000000000010203047A0100200C00000079010020740100207601002075010020770100207801002023235A785A1E1E5A020000040100000000007017E02E00002E
:4030C0000C000000001BB70000000000000000000000000000000000000000000000000000000000000000004430000000000000000000000000000000000000000000007E
:4031000000000000000000000000000000000000000000000000000000000000000000000000000000000000D000002000000000000000000000000000000000000000009F
:40314000000000000000000000000000000000000000000000000000000000000000000000000000000000000000000000000000000000000000000000000000000000004F
:40318000000000000000000000000000000000000000000000000000000000000000000000000000000000000000000000000000000000000000000000000000000000000F
:4031C00000000000000000000000000000000000000000000000000000000000000000000000000000000000000000000000000000000000000000000000000000000000CF
:40320000000000000000000000000000000000000000000000000000000000000000000000000000000000000000000000000000000000000000000000000000000000008E
:0200000490303A
:02000000B461E9
:0200000490402A
:1000000000000000000000000000000000000000F0
:0200000490501A
:0C0000000002190911A900011917C60A15
:0200000490600A
:0100000001FE
:00000001FF